{
  "contractName": "IntegerOverflow",
  "abi": [
    {
      "constant": true,
      "inputs": [],
      "name": "count",
      "outputs": [
        {
          "name": "",
          "type": "uint256"
        }
      ],
      "payable": false,
      "stateMutability": "view",
      "type": "function"
    },
    {
      "constant": false,
      "inputs": [
        {
          "name": "input",
          "type": "uint256"
        }
      ],
      "name": "run",
      "outputs": [],
      "payable": false,
      "stateMutability": "nonpayable",
      "type": "function"
    }
  ],
  "bytecode": "0x60806040526107a360005534801561001657600080fd5b5060e4806100256000396000f3006080604052600436106049576000357c0100000000000000000000000000000000000000000000000000000000900463ffffffff16806306661abd14604e578063a444f5e9146076575b600080fd5b348015605957600080fd5b50606060a0565b6040518082815260200191505060405180910390f35b348015608157600080fd5b50609e6004803603810190808035906020019092919050505060a6565b005b60005481565b806000808282540292505081905550505600a165627a7a72305820ebde511764d3e81b205e4cd886a3996c87262aff0d4aedbfc501ab93c761b2b80029",
  "source": "pragma solidity ^0.4.23;\n\ncontract IntegerOverflow {\n    uint public count = 1955;\n\n    function run(uint256 input) public {\n        count *= input;\n    }\n}\n",
  "sourcePath": "/home/rocky/truffle/IntegerOverflow/contracts/IntegerOverflow.sol",
  "compiler": {
    "name": "solc",
    "version": "0.4.24+commit.e67f0147.Emscripten.clang"
  },
  "schemaVersion": "2.0.1",
  "updatedAt": "2018-07-20T00:20:02.074Z"
}