{
  "contractName": "PublicStorageArray",
  "abi": [
    {
      "constant": true,
      "inputs": [
        {
          "name": "",
          "type": "uint256"
        }
      ],
      "name": "STATES",
      "outputs": [
        {
          "name": "",
          "type": "bytes32"
        }
      ],
      "payable": false,
      "stateMutability": "view",
      "type": "function"
    }
  ],
  "bytecode": "0x6080604052602060405190810160405280600060010260001916600019168152506000906001610030929190610043565b5034801561003d57600080fd5b506100bb565b828054828255906000526020600020908101928215610085579160200282015b82811115610084578251829060001916905591602001919060010190610063565b5b5090506100929190610096565b5090565b6100b891905b808211156100b457600081600090555060010161009c565b5090565b90565b60d8806100c96000396000f300608060405260043610603f576000357c0100000000000000000000000000000000000000000000000000000000900463ffffffff1680632da83e68146044575b600080fd5b348015604f57600080fd5b50606c60048036038101908080359060200190929190505050608a565b60405180826000191660001916815260200191505060405180910390f35b600081815481101515609857fe5b9060005260206000200160009150905054815600a165627a7a72305820b5c40fa94b4b730de14d4cd776ec248e4def2f297fc4228099da5d65b4a222670029",
  "source": "pragma solidity ^0.4.22;\n\ncontract PublicStorageArray {\n    bytes32[] public STATES = [bytes32(0)];\n}\n",
  "sourcePath": "/home/rocky/truffle/mythjs-should-detect/storage_arrays/contracts/PublicStorageArray.sol",
  "compiler": {
    "name": "solc",
    "version": "0.4.24+commit.e67f0147.Emscripten.clang"
  },
  "schemaVersion": "2.0.1",
  "updatedAt": "2018-08-06T00:41:52.315Z"
}